{
  "_format": "hh-sol-artifact-1",
  "contractName": "MyEpicGame",
  "sourceName": "contracts/MyEpicGame.sol",
  "abi": [
    {
      "inputs": [
        {
          "internalType": "string[]",
          "name": "characterNames",
          "type": "string[]"
        },
        {
          "internalType": "string[]",
          "name": "characterImageURIs",
          "type": "string[]"
        },
        {
          "internalType": "uint256[]",
          "name": "characterHp",
          "type": "uint256[]"
        },
        {
          "internalType": "uint256[]",
          "name": "characterAttackDmg",
          "type": "uint256[]"
        },
        {
          "internalType": "string",
          "name": "bossName",
          "type": "string"
        },
        {
          "internalType": "string",
          "name": "bossImageURI",
          "type": "string"
        },
        {
          "internalType": "uint256",
          "name": "bossHp",
          "type": "uint256"
        },
        {
          "internalType": "uint256",
          "name": "bossAttackDamage",
          "type": "uint256"
        }
      ],
      "stateMutability": "nonpayable",
      "type": "constructor"
    },
    {
      "anonymous": false,
      "inputs": [
        {
          "indexed": true,
          "internalType": "address",
          "name": "owner",
          "type": "address"
        },
        {
          "indexed": true,
          "internalType": "address",
          "name": "approved",
          "type": "address"
        },
        {
          "indexed": true,
          "internalType": "uint256",
          "name": "tokenId",
          "type": "uint256"
        }
      ],
      "name": "Approval",
      "type": "event"
    },
    {
      "anonymous": false,
      "inputs": [
        {
          "indexed": true,
          "internalType": "address",
          "name": "owner",
          "type": "address"
        },
        {
          "indexed": true,
          "internalType": "address",
          "name": "operator",
          "type": "address"
        },
        {
          "indexed": false,
          "internalType": "bool",
          "name": "approved",
          "type": "bool"
        }
      ],
      "name": "ApprovalForAll",
      "type": "event"
    },
    {
      "anonymous": false,
      "inputs": [
        {
          "indexed": false,
          "internalType": "address",
          "name": "sender",
          "type": "address"
        },
        {
          "indexed": false,
          "internalType": "uint256",
          "name": "newBossHp",
          "type": "uint256"
        },
        {
          "indexed": false,
          "internalType": "uint256",
          "name": "newPlayerHp",
          "type": "uint256"
        }
      ],
      "name": "AttackComplete",
      "type": "event"
    },
    {
      "anonymous": false,
      "inputs": [
        {
          "indexed": false,
          "internalType": "address",
          "name": "sender",
          "type": "address"
        },
        {
          "indexed": false,
          "internalType": "uint256",
          "name": "tokenId",
          "type": "uint256"
        },
        {
          "indexed": false,
          "internalType": "uint256",
          "name": "characterIndex",
          "type": "uint256"
        }
      ],
      "name": "CharacterNFTMinted",
      "type": "event"
    },
    {
      "anonymous": false,
      "inputs": [
        {
          "indexed": true,
          "internalType": "address",
          "name": "from",
          "type": "address"
        },
        {
          "indexed": true,
          "internalType": "address",
          "name": "to",
          "type": "address"
        },
        {
          "indexed": true,
          "internalType": "uint256",
          "name": "tokenId",
          "type": "uint256"
        }
      ],
      "name": "Transfer",
      "type": "event"
    },
    {
      "inputs": [
        {
          "internalType": "address",
          "name": "to",
          "type": "address"
        },
        {
          "internalType": "uint256",
          "name": "tokenId",
          "type": "uint256"
        }
      ],
      "name": "approve",
      "outputs": [],
      "stateMutability": "nonpayable",
      "type": "function"
    },
    {
      "inputs": [],
      "name": "attackBoss",
      "outputs": [],
      "stateMutability": "nonpayable",
      "type": "function"
    },
    {
      "inputs": [
        {
          "internalType": "address",
          "name": "owner",
          "type": "address"
        }
      ],
      "name": "balanceOf",
      "outputs": [
        {
          "internalType": "uint256",
          "name": "",
          "type": "uint256"
        }
      ],
      "stateMutability": "view",
      "type": "function"
    },
    {
      "inputs": [],
      "name": "bigBoss",
      "outputs": [
        {
          "internalType": "string",
          "name": "name",
          "type": "string"
        },
        {
          "internalType": "string",
          "name": "imageURI",
          "type": "string"
        },
        {
          "internalType": "uint256",
          "name": "hp",
          "type": "uint256"
        },
        {
          "internalType": "uint256",
          "name": "maxHp",
          "type": "uint256"
        },
        {
          "internalType": "uint256",
          "name": "attackDamage",
          "type": "uint256"
        }
      ],
      "stateMutability": "view",
      "type": "function"
    },
    {
      "inputs": [],
      "name": "checkIfUserHasNFT",
      "outputs": [
        {
          "components": [
            {
              "internalType": "uint256",
              "name": "characterIndex",
              "type": "uint256"
            },
            {
              "internalType": "string",
              "name": "name",
              "type": "string"
            },
            {
              "internalType": "string",
              "name": "imageURI",
              "type": "string"
            },
            {
              "internalType": "uint256",
              "name": "hp",
              "type": "uint256"
            },
            {
              "internalType": "uint256",
              "name": "maxHp",
              "type": "uint256"
            },
            {
              "internalType": "uint256",
              "name": "attackDamage",
              "type": "uint256"
            }
          ],
          "internalType": "struct MyEpicGame.CharacterAttributes",
          "name": "",
          "type": "tuple"
        }
      ],
      "stateMutability": "view",
      "type": "function"
    },
    {
      "inputs": [],
      "name": "doAttackComplete",
      "outputs": [],
      "stateMutability": "nonpayable",
      "type": "function"
    },
    {
      "inputs": [],
      "name": "getAllDefaultCharacters",
      "outputs": [
        {
          "components": [
            {
              "internalType": "uint256",
              "name": "characterIndex",
              "type": "uint256"
            },
            {
              "internalType": "string",
              "name": "name",
              "type": "string"
            },
            {
              "internalType": "string",
              "name": "imageURI",
              "type": "string"
            },
            {
              "internalType": "uint256",
              "name": "hp",
              "type": "uint256"
            },
            {
              "internalType": "uint256",
              "name": "maxHp",
              "type": "uint256"
            },
            {
              "internalType": "uint256",
              "name": "attackDamage",
              "type": "uint256"
            }
          ],
          "internalType": "struct MyEpicGame.CharacterAttributes[]",
          "name": "",
          "type": "tuple[]"
        }
      ],
      "stateMutability": "view",
      "type": "function"
    },
    {
      "inputs": [
        {
          "internalType": "uint256",
          "name": "tokenId",
          "type": "uint256"
        }
      ],
      "name": "getApproved",
      "outputs": [
        {
          "internalType": "address",
          "name": "",
          "type": "address"
        }
      ],
      "stateMutability": "view",
      "type": "function"
    },
    {
      "inputs": [],
      "name": "getBigBoss",
      "outputs": [
        {
          "components": [
            {
              "internalType": "string",
              "name": "name",
              "type": "string"
            },
            {
              "internalType": "string",
              "name": "imageURI",
              "type": "string"
            },
            {
              "internalType": "uint256",
              "name": "hp",
              "type": "uint256"
            },
            {
              "internalType": "uint256",
              "name": "maxHp",
              "type": "uint256"
            },
            {
              "internalType": "uint256",
              "name": "attackDamage",
              "type": "uint256"
            }
          ],
          "internalType": "struct MyEpicGame.BigBoss",
          "name": "",
          "type": "tuple"
        }
      ],
      "stateMutability": "view",
      "type": "function"
    },
    {
      "inputs": [
        {
          "internalType": "address",
          "name": "owner",
          "type": "address"
        },
        {
          "internalType": "address",
          "name": "operator",
          "type": "address"
        }
      ],
      "name": "isApprovedForAll",
      "outputs": [
        {
          "internalType": "bool",
          "name": "",
          "type": "bool"
        }
      ],
      "stateMutability": "view",
      "type": "function"
    },
    {
      "inputs": [
        {
          "internalType": "uint256",
          "name": "_characterIndex",
          "type": "uint256"
        }
      ],
      "name": "mintCharacterNFT",
      "outputs": [],
      "stateMutability": "nonpayable",
      "type": "function"
    },
    {
      "inputs": [],
      "name": "name",
      "outputs": [
        {
          "internalType": "string",
          "name": "",
          "type": "string"
        }
      ],
      "stateMutability": "view",
      "type": "function"
    },
    {
      "inputs": [
        {
          "internalType": "uint256",
          "name": "",
          "type": "uint256"
        }
      ],
      "name": "nftHolderAttributes",
      "outputs": [
        {
          "internalType": "uint256",
          "name": "characterIndex",
          "type": "uint256"
        },
        {
          "internalType": "string",
          "name": "name",
          "type": "string"
        },
        {
          "internalType": "string",
          "name": "imageURI",
          "type": "string"
        },
        {
          "internalType": "uint256",
          "name": "hp",
          "type": "uint256"
        },
        {
          "internalType": "uint256",
          "name": "maxHp",
          "type": "uint256"
        },
        {
          "internalType": "uint256",
          "name": "attackDamage",
          "type": "uint256"
        }
      ],
      "stateMutability": "view",
      "type": "function"
    },
    {
      "inputs": [
        {
          "internalType": "address",
          "name": "",
          "type": "address"
        }
      ],
      "name": "nftHolders",
      "outputs": [
        {
          "internalType": "uint256",
          "name": "",
          "type": "uint256"
        }
      ],
      "stateMutability": "view",
      "type": "function"
    },
    {
      "inputs": [
        {
          "internalType": "uint256",
          "name": "tokenId",
          "type": "uint256"
        }
      ],
      "name": "ownerOf",
      "outputs": [
        {
          "internalType": "address",
          "name": "",
          "type": "address"
        }
      ],
      "stateMutability": "view",
      "type": "function"
    },
    {
      "inputs": [
        {
          "internalType": "address",
          "name": "from",
          "type": "address"
        },
        {
          "internalType": "address",
          "name": "to",
          "type": "address"
        },
        {
          "internalType": "uint256",
          "name": "tokenId",
          "type": "uint256"
        }
      ],
      "name": "safeTransferFrom",
      "outputs": [],
      "stateMutability": "nonpayable",
      "type": "function"
    },
    {
      "inputs": [
        {
          "internalType": "address",
          "name": "from",
          "type": "address"
        },
        {
          "internalType": "address",
          "name": "to",
          "type": "address"
        },
        {
          "internalType": "uint256",
          "name": "tokenId",
          "type": "uint256"
        },
        {
          "internalType": "bytes",
          "name": "data",
          "type": "bytes"
        }
      ],
      "name": "safeTransferFrom",
      "outputs": [],
      "stateMutability": "nonpayable",
      "type": "function"
    },
    {
      "inputs": [
        {
          "internalType": "address",
          "name": "operator",
          "type": "address"
        },
        {
          "internalType": "bool",
          "name": "approved",
          "type": "bool"
        }
      ],
      "name": "setApprovalForAll",
      "outputs": [],
      "stateMutability": "nonpayable",
      "type": "function"
    },
    {
      "inputs": [
        {
          "internalType": "bytes4",
          "name": "interfaceId",
          "type": "bytes4"
        }
      ],
      "name": "supportsInterface",
      "outputs": [
        {
          "internalType": "bool",
          "name": "",
          "type": "bool"
        }
      ],
      "stateMutability": "view",
      "type": "function"
    },
    {
      "inputs": [],
      "name": "symbol",
      "outputs": [
        {
          "internalType": "string",
          "name": "",
          "type": "string"
        }
      ],
      "stateMutability": "view",
      "type": "function"
    },
    {
      "inputs": [
        {
          "internalType": "uint256",
          "name": "_tokenId",
          "type": "uint256"
        }
      ],
      "name": "tokenURI",
      "outputs": [
        {
          "internalType": "string",
          "name": "",
          "type": "string"
        }
      ],
      "stateMutability": "view",
      "type": "function"
    },
    {
      "inputs": [
        {
          "internalType": "address",
          "name": "from",
          "type": "address"
        },
        {
          "internalType": "address",
          "name": "to",
          "type": "address"
        },
        {
          "internalType": "uint256",
          "name": "tokenId",
          "type": "uint256"
        }
      ],
      "name": "transferFrom",
      "outputs": [],
      "stateMutability": "nonpayable",
      "type": "function"
    }
  ],
  "bytecode": "0x608060405260006006553480156200001657600080fd5b5060405162005a2638038062005a2683398181016040528101906200003c91906200092f565b6040518060400160405280600681526020017f4865726f657300000000000000000000000000000000000000000000000000008152506040518060400160405280600481526020017f4845524f000000000000000000000000000000000000000000000000000000008152508160009081620000b9919062000cf3565b508060019081620000cb919062000cf3565b5050506040518060a0016040528085815260200184815260200183815260200183815260200182815250600a60008201518160000190816200010e919062000cf3565b50602082015181600101908162000126919062000cf3565b5060408201518160020155606082015181600301556080820151816004015590505060005b88518110156200047e5760086040518060c001604052808381526020018b84815181106200017e576200017d62000dda565b5b602002602001015181526020018a8481518110620001a157620001a062000dda565b5b60200260200101518152602001898481518110620001c457620001c362000dda565b5b60200260200101518152602001898481518110620001e757620001e662000dda565b5b602002602001015181526020018884815181106200020a576200020962000dda565b5b602002602001015181525090806001815401808255809150506001900390600052602060002090600602016000909190919091506000820151816000015560208201518160010190816200025f919062000cf3565b50604082015181600201908162000277919062000cf3565b50606082015181600301556080820151816004015560a082015181600501555050600060088281548110620002b157620002b062000dda565b5b90600052602060002090600602016040518060c001604052908160008201548152602001600182018054620002e69062000aec565b80601f0160208091040260200160405190810160405280929190818152602001828054620003149062000aec565b8015620003655780601f10620003395761010080835404028352916020019162000365565b820191906000526020600020905b8154815290600101906020018083116200034757829003601f168201915b50505050508152602001600282018054620003809062000aec565b80601f0160208091040260200160405190810160405280929190818152602001828054620003ae9062000aec565b8015620003ff5780601f10620003d357610100808354040283529160200191620003ff565b820191906000526020600020905b815481529060010190602001808311620003e157829003601f168201915b50505050508152602001600382015481526020016004820154815260200160058201548152505090506200046660405180606001604052806025815260200162005a0160259139826020015183606001518460400151620004a460201b62001ad71760201c565b5060018162000476919062000e38565b90506200014b565b506200049660076200055060201b62001b791760201c565b505050505050505062000f38565b6200054a84848484604051602401620004c1949392919062000ed6565b6040516020818303038152906040527f5d1a971a000000000000000000000000000000000000000000000000000000007bffffffffffffffffffffffffffffffffffffffffffffffffffffffff19166020820180517bffffffffffffffffffffffffffffffffffffffffffffffffffffffff83818316178352505050506200056660201b60201c565b50505050565b6001816000016000828254019250508190555050565b60008151905060006a636f6e736f6c652e6c6f679050602083016000808483855afa5050505050565b6000604051905090565b600080fd5b600080fd5b600080fd5b6000601f19601f8301169050919050565b7f4e487b7100000000000000000000000000000000000000000000000000000000600052604160045260246000fd5b620005f382620005a8565b810181811067ffffffffffffffff82111715620006155762000614620005b9565b5b80604052505050565b60006200062a6200058f565b9050620006388282620005e8565b919050565b600067ffffffffffffffff8211156200065b576200065a620005b9565b5b602082029050602081019050919050565b600080fd5b600080fd5b600067ffffffffffffffff821115620006945762000693620005b9565b5b6200069f82620005a8565b9050602081019050919050565b60005b83811015620006cc578082015181840152602081019050620006af565b60008484015250505050565b6000620006ef620006e98462000676565b6200061e565b9050828152602081018484840111156200070e576200070d62000671565b5b6200071b848285620006ac565b509392505050565b600082601f8301126200073b576200073a620005a3565b5b81516200074d848260208601620006d8565b91505092915050565b60006200076d62000767846200063d565b6200061e565b905080838252602082019050602084028301858111156200079357620007926200066c565b5b835b81811015620007e157805167ffffffffffffffff811115620007bc57620007bb620005a3565b5b808601620007cb898262000723565b8552602085019450505060208101905062000795565b5050509392505050565b600082601f830112620008035762000802620005a3565b5b81516200081584826020860162000756565b91505092915050565b600067ffffffffffffffff8211156200083c576200083b620005b9565b5b602082029050602081019050919050565b6000819050919050565b62000862816200084d565b81146200086e57600080fd5b50565b600081519050620008828162000857565b92915050565b60006200089f62000899846200081e565b6200061e565b90508083825260208201905060208402830185811115620008c557620008c46200066c565b5b835b81811015620008f25780620008dd888262000871565b845260208401935050602081019050620008c7565b5050509392505050565b600082601f830112620009145762000913620005a3565b5b81516200092684826020860162000888565b91505092915050565b600080600080600080600080610100898b03121562000953576200095262000599565b5b600089015167ffffffffffffffff8111156200097457620009736200059e565b5b620009828b828c01620007eb565b985050602089015167ffffffffffffffff811115620009a657620009a56200059e565b5b620009b48b828c01620007eb565b975050604089015167ffffffffffffffff811115620009d857620009d76200059e565b5b620009e68b828c01620008fc565b965050606089015167ffffffffffffffff81111562000a0a5762000a096200059e565b5b62000a188b828c01620008fc565b955050608089015167ffffffffffffffff81111562000a3c5762000a3b6200059e565b5b62000a4a8b828c0162000723565b94505060a089015167ffffffffffffffff81111562000a6e5762000a6d6200059e565b5b62000a7c8b828c0162000723565b93505060c062000a8f8b828c0162000871565b92505060e062000aa28b828c0162000871565b9150509295985092959890939650565b600081519050919050565b7f4e487b7100000000000000000000000000000000000000000000000000000000600052602260045260246000fd5b6000600282049050600182168062000b0557607f821691505b60208210810362000b1b5762000b1a62000abd565b5b50919050565b60008190508160005260206000209050919050565b60006020601f8301049050919050565b600082821b905092915050565b60006008830262000b857fffffffffffffffffffffffffffffffffffffffffffffffffffffffffffffffff8262000b46565b62000b91868362000b46565b95508019841693508086168417925050509392505050565b6000819050919050565b600062000bd462000bce62000bc8846200084d565b62000ba9565b6200084d565b9050919050565b6000819050919050565b62000bf08362000bb3565b62000c0862000bff8262000bdb565b84845462000b53565b825550505050565b600090565b62000c1f62000c10565b62000c2c81848462000be5565b505050565b5b8181101562000c545762000c4860008262000c15565b60018101905062000c32565b5050565b601f82111562000ca35762000c6d8162000b21565b62000c788462000b36565b8101602085101562000c88578190505b62000ca062000c978562000b36565b83018262000c31565b50505b505050565b600082821c905092915050565b600062000cc86000198460080262000ca8565b1980831691505092915050565b600062000ce3838362000cb5565b9150826002028217905092915050565b62000cfe8262000ab2565b67ffffffffffffffff81111562000d1a5762000d19620005b9565b5b62000d26825462000aec565b62000d3382828562000c58565b600060209050601f83116001811462000d6b576000841562000d56578287015190505b62000d62858262000cd5565b86555062000dd2565b601f19841662000d7b8662000b21565b60005b8281101562000da55784890151825560018201915060208501945060208101905062000d7e565b8683101562000dc5578489015162000dc1601f89168262000cb5565b8355505b6001600288020188555050505b505050505050565b7f4e487b7100000000000000000000000000000000000000000000000000000000600052603260045260246000fd5b7f4e487b7100000000000000000000000000000000000000000000000000000000600052601160045260246000fd5b600062000e45826200084d565b915062000e52836200084d565b925082820190508082111562000e6d5762000e6c62000e09565b5b92915050565b600082825260208201905092915050565b600062000e918262000ab2565b62000e9d818562000e73565b935062000eaf818560208601620006ac565b62000eba81620005a8565b840191505092915050565b62000ed0816200084d565b82525050565b6000608082019050818103600083015262000ef2818762000e84565b9050818103602083015262000f08818662000e84565b905062000f19604083018562000ec5565b818103606083015262000f2d818462000e84565b905095945050505050565b614ab98062000f486000396000f3fe608060405234801561001057600080fd5b50600436106101425760003560e01c806395d89b41116100b8578063b953084e1161007c578063b953084e1461037e578063c87b56dd1461039c578063c8cf27f4146103cc578063d4f24c5b146103ea578063e985e9c5146103f4578063f8b81ef71461042457610142565b806395d89b41146102d157806398da4c95146102ef578063a22cb46514610324578063a9c3267914610340578063b88d4fde1461036257610142565b806323b872dd1161010a57806323b872dd146101ff57806342842e0e1461021b5780634d77ac46146102375780636352211e1461024157806370a08231146102715780637df124a1146102a157610142565b806301ffc9a7146101475780630665f9611461017757806306fdde0314610195578063081812fc146101b3578063095ea7b3146101e3575b600080fd5b610161600480360381019061015c9190612ee2565b610440565b60405161016e9190612f2a565b60405180910390f35b61017f610522565b60405161018c919061306b565b60405180910390f35b61019d61067e565b6040516101aa91906130d7565b60405180910390f35b6101cd60048036038101906101c89190613125565b610710565b6040516101da9190613193565b60405180910390f35b6101fd60048036038101906101f891906131da565b610756565b005b6102196004803603810190610214919061321a565b61086d565b005b6102356004803603810190610230919061321a565b6108cd565b005b61023f6108ed565b005b61025b60048036038101906102569190613125565b610990565b6040516102689190613193565b60405180910390f35b61028b6004803603810190610286919061326d565b610a16565b60405161029891906132a9565b60405180910390f35b6102bb60048036038101906102b6919061326d565b610acd565b6040516102c891906132a9565b60405180910390f35b6102d9610ae5565b6040516102e691906130d7565b60405180910390f35b61030960048036038101906103049190613125565b610b77565b60405161031b969594939291906132c4565b60405180910390f35b61033e6004803603810190610339919061335f565b610cc3565b005b610348610cd9565b60405161035995949392919061339f565b60405180910390f35b61037c60048036038101906103779190613535565b610e0d565b005b610386610e6f565b604051610393919061370a565b60405180910390f35b6103b660048036038101906103b19190613125565b61101a565b6040516103c391906130d7565b60405180910390f35b6103d4611235565b6040516103e191906137bc565b60405180910390f35b6103f261140d565b005b61040e600480360381019061040991906137de565b611756565b60405161041b9190612f2a565b60405180910390f35b61043e60048036038101906104399190613125565b6117ea565b005b60007f80ac58cd000000000000000000000000000000000000000000000000000000007bffffffffffffffffffffffffffffffffffffffffffffffffffffffff1916827bffffffffffffffffffffffffffffffffffffffffffffffffffffffff1916148061050b57507f5b5e139f000000000000000000000000000000000000000000000000000000007bffffffffffffffffffffffffffffffffffffffffffffffffffffffff1916827bffffffffffffffffffffffffffffffffffffffffffffffffffffffff1916145b8061051b575061051a82611b8f565b5b9050919050565b61052a612e11565b600a6040518060a00160405290816000820180546105479061384d565b80601f01602080910402602001604051908101604052809291908181526020018280546105739061384d565b80156105c05780601f10610595576101008083540402835291602001916105c0565b820191906000526020600020905b8154815290600101906020018083116105a357829003601f168201915b505050505081526020016001820180546105d99061384d565b80601f01602080910402602001604051908101604052809291908181526020018280546106059061384d565b80156106525780601f1061062757610100808354040283529160200191610652565b820191906000526020600020905b81548152906001019060200180831161063557829003601f168201915b505050505081526020016002820154815260200160038201548152602001600482015481525050905090565b60606000805461068d9061384d565b80601f01602080910402602001604051908101604052809291908181526020018280546106b99061384d565b80156107065780601f106106db57610100808354040283529160200191610706565b820191906000526020600020905b8154815290600101906020018083116106e957829003601f168201915b5050505050905090565b600061071b82611bf9565b6004600083815260200190815260200160002060009054906101000a900473ffffffffffffffffffffffffffffffffffffffff169050919050565b600061076182610990565b90508073ffffffffffffffffffffffffffffffffffffffff168373ffffffffffffffffffffffffffffffffffffffff16036107d1576040517f08c379a00000000000000000000000000000000000000000000000000000000081526004016107c8906138f0565b60405180910390fd5b8073ffffffffffffffffffffffffffffffffffffffff166107f0611c44565b73ffffffffffffffffffffffffffffffffffffffff16148061081f575061081e81610819611c44565b611756565b5b61085e576040517f08c379a000000000000000000000000000000000000000000000000000000000815260040161085590613982565b60405180910390fd5b6108688383611c4c565b505050565b61087e610878611c44565b82611d05565b6108bd576040517f08c379a00000000000000000000000000000000000000000000000000000000081526004016108b490613a14565b60405180910390fd5b6108c8838383611d9a565b505050565b6108e883838360405180602001604052806000815250610e0d565b505050565b6000600f60003373ffffffffffffffffffffffffffffffffffffffff1673ffffffffffffffffffffffffffffffffffffffff16815260200190815260200160002054905060006009600083815260200190815260200160002090507f32bd565ee3f2cb5ddd742bbecd6048d3e9abe90b3827a40c2b72d232e71e3c9d33600a60020154836003015460405161098493929190613a34565b60405180910390a15050565b60008061099c83612093565b9050600073ffffffffffffffffffffffffffffffffffffffff168173ffffffffffffffffffffffffffffffffffffffff1603610a0d576040517f08c379a0000000000000000000000000000000000000000000000000000000008152600401610a0490613ab7565b60405180910390fd5b80915050919050565b60008073ffffffffffffffffffffffffffffffffffffffff168273ffffffffffffffffffffffffffffffffffffffff1603610a86576040517f08c379a0000000000000000000000000000000000000000000000000000000008152600401610a7d90613b49565b60405180910390fd5b600360008373ffffffffffffffffffffffffffffffffffffffff1673ffffffffffffffffffffffffffffffffffffffff168152602001908152602001600020549050919050565b600f6020528060005260406000206000915090505481565b606060018054610af49061384d565b80601f0160208091040260200160405190810160405280929190818152602001828054610b209061384d565b8015610b6d5780601f10610b4257610100808354040283529160200191610b6d565b820191906000526020600020905b815481529060010190602001808311610b5057829003601f168201915b5050505050905090565b6009602052806000526040600020600091509050806000015490806001018054610ba09061384d565b80601f0160208091040260200160405190810160405280929190818152602001828054610bcc9061384d565b8015610c195780601f10610bee57610100808354040283529160200191610c19565b820191906000526020600020905b815481529060010190602001808311610bfc57829003601f168201915b505050505090806002018054610c2e9061384d565b80601f0160208091040260200160405190810160405280929190818152602001828054610c5a9061384d565b8015610ca75780601f10610c7c57610100808354040283529160200191610ca7565b820191906000526020600020905b815481529060010190602001808311610c8a57829003601f168201915b5050505050908060030154908060040154908060050154905086565b610cd5610cce611c44565b83836120d0565b5050565b600a806000018054610cea9061384d565b80601f0160208091040260200160405190810160405280929190818152602001828054610d169061384d565b8015610d635780601f10610d3857610100808354040283529160200191610d63565b820191906000526020600020905b815481529060010190602001808311610d4657829003601f168201915b505050505090806001018054610d789061384d565b80601f0160208091040260200160405190810160405280929190818152602001828054610da49061384d565b8015610df15780601f10610dc657610100808354040283529160200191610df1565b820191906000526020600020905b815481529060010190602001808311610dd457829003601f168201915b5050505050908060020154908060030154908060040154905085565b610e1e610e18611c44565b83611d05565b610e5d576040517f08c379a0000000000000000000000000000000000000000000000000000000008152600401610e5490613a14565b60405180910390fd5b610e698484848461223c565b50505050565b60606008805480602002602001604051908101604052809291908181526020016000905b8282101561101157838290600052602060002090600602016040518060c001604052908160008201548152602001600182018054610ed09061384d565b80601f0160208091040260200160405190810160405280929190818152602001828054610efc9061384d565b8015610f495780601f10610f1e57610100808354040283529160200191610f49565b820191906000526020600020905b815481529060010190602001808311610f2c57829003601f168201915b50505050508152602001600282018054610f629061384d565b80601f0160208091040260200160405190810160405280929190818152602001828054610f8e9061384d565b8015610fdb5780601f10610fb057610100808354040283529160200191610fdb565b820191906000526020600020905b815481529060010190602001808311610fbe57829003601f168201915b50505050508152602001600382015481526020016004820154815260200160058201548152505081526020019060010190610e93565b50505050905090565b60606000600960008481526020019081526020016000206040518060c0016040529081600082015481526020016001820180546110569061384d565b80601f01602080910402602001604051908101604052809291908181526020018280546110829061384d565b80156110cf5780601f106110a4576101008083540402835291602001916110cf565b820191906000526020600020905b8154815290600101906020018083116110b257829003601f168201915b505050505081526020016002820180546110e89061384d565b80601f01602080910402602001604051908101604052809291908181526020018280546111149061384d565b80156111615780601f1061113657610100808354040283529160200191611161565b820191906000526020600020905b81548152906001019060200180831161114457829003601f168201915b505050505081526020016003820154815260200160048201548152602001600582015481525050905060006111998260600151612298565b905060006111aa8360800151612298565b905060006111bb8460a00151612298565b9050600061120185602001516111d089612298565b87604001518787876040516020016111ed96959493929190613e77565b604051602081830303815290604052612366565b90506000816040516020016112169190613f68565b6040516020818303038152906040529050809650505050505050919050565b61123d612e40565b6000600f60003373ffffffffffffffffffffffffffffffffffffffff1673ffffffffffffffffffffffffffffffffffffffff16815260200190815260200160002054905060008111156113fc57600960008281526020019081526020016000206040518060c0016040529081600082015481526020016001820180546112c29061384d565b80601f01602080910402602001604051908101604052809291908181526020018280546112ee9061384d565b801561133b5780601f106113105761010080835404028352916020019161133b565b820191906000526020600020905b81548152906001019060200180831161131e57829003601f168201915b505050505081526020016002820180546113549061384d565b80601f01602080910402602001604051908101604052809291908181526020018280546113809061384d565b80156113cd5780601f106113a2576101008083540402835291602001916113cd565b820191906000526020600020905b8154815290600101906020018083116113b057829003601f168201915b50505050508152602001600382015481526020016004820154815260200160058201548152505091505061140a565b611404612e40565b80925050505b90565b6000600f60003373ffffffffffffffffffffffffffffffffffffffff1673ffffffffffffffffffffffffffffffffffffffff16815260200190815260200160002054905060006009600083815260200190815260200160002090506115206040518060600160405280603c8152602001614a48603c91398260010180546114939061384d565b80601f01602080910402602001604051908101604052809291908181526020018280546114bf9061384d565b801561150c5780601f106114e15761010080835404028352916020019161150c565b820191906000526020600020905b8154815290600101906020018083116114ef57829003601f168201915b5050505050836003015484600501546124fd565b6115f86040518060400160405280601b81526020017f426f73732025732068617320257320485020616e642025732041440000000000815250600a60000180546115699061384d565b80601f01602080910402602001604051908101604052809291908181526020018280546115959061384d565b80156115e25780601f106115b7576101008083540402835291602001916115e2565b820191906000526020600020905b8154815290600101906020018083116115c557829003601f168201915b5050505050600a60020154600a600401546124fd565b600081600301541161163f576040517f08c379a000000000000000000000000000000000000000000000000000000000815260040161163690613ffc565b60405180910390fd5b6000600a6002015411611687576040517f08c379a000000000000000000000000000000000000000000000000000000000815260040161167e9061408e565b60405180910390fd5b8060050154600a6002015410156116a8576000600a600201819055506116c7565b8060050154600a600201546116bd91906140dd565b600a600201819055505b600a60040154816003015410156116e75760008160030181905550611705565b600a6004015481600301546116fc91906140dd565b81600301819055505b61172c60405180606001604052806025815260200161498d60259139600a6002015461259f565b6117526040518060600160405280602881526020016149f260289139826003015461259f565b5050565b6000600560008473ffffffffffffffffffffffffffffffffffffffff1673ffffffffffffffffffffffffffffffffffffffff16815260200190815260200160002060008373ffffffffffffffffffffffffffffffffffffffff1673ffffffffffffffffffffffffffffffffffffffff16815260200190815260200160002060009054906101000a900460ff16905092915050565b60006117f6600761263b565b90506118023382612649565b6040518060c001604052808381526020016008848154811061182757611826614111565b5b906000526020600020906006020160010180546118439061384d565b80601f016020809104026020016040519081016040528092919081815260200182805461186f9061384d565b80156118bc5780601f10611891576101008083540402835291602001916118bc565b820191906000526020600020905b81548152906001019060200180831161189f57829003601f168201915b50505050508152602001600884815481106118da576118d9614111565b5b906000526020600020906006020160020180546118f69061384d565b80601f01602080910402602001604051908101604052809291908181526020018280546119229061384d565b801561196f5780601f106119445761010080835404028352916020019161196f565b820191906000526020600020905b81548152906001019060200180831161195257829003601f168201915b505050505081526020016008848154811061198d5761198c614111565b5b9060005260206000209060060201600301548152602001600884815481106119b8576119b7614111565b5b9060005260206000209060060201600401548152602001600884815481106119e3576119e2614111565b5b90600052602060002090600602016005015481525060096000838152602001908152602001600020600082015181600001556020820151816001019081611a2a91906142ec565b506040820151816002019081611a4091906142ec565b50606082015181600301556080820151816004015560a08201518160050155905050611a856040518060600160405280602e8152602001614a1a602e91398284612667565b80600f60003373ffffffffffffffffffffffffffffffffffffffff1673ffffffffffffffffffffffffffffffffffffffff16815260200190815260200160002081905550611ad36007611b79565b5050565b611b7384848484604051602401611af194939291906143be565b6040516020818303038152906040527f5d1a971a000000000000000000000000000000000000000000000000000000007bffffffffffffffffffffffffffffffffffffffffffffffffffffffff19166020820180517bffffffffffffffffffffffffffffffffffffffffffffffffffffffff8381831617835250505050612706565b50505050565b6001816000016000828254019250508190555050565b60007f01ffc9a7000000000000000000000000000000000000000000000000000000007bffffffffffffffffffffffffffffffffffffffffffffffffffffffff1916827bffffffffffffffffffffffffffffffffffffffffffffffffffffffff1916149050919050565b611c028161272f565b611c41576040517f08c379a0000000000000000000000000000000000000000000000000000000008152600401611c3890613ab7565b60405180910390fd5b50565b600033905090565b816004600083815260200190815260200160002060006101000a81548173ffffffffffffffffffffffffffffffffffffffff021916908373ffffffffffffffffffffffffffffffffffffffff160217905550808273ffffffffffffffffffffffffffffffffffffffff16611cbf83610990565b73ffffffffffffffffffffffffffffffffffffffff167f8c5be1e5ebec7d5bd14f71427d1e84f3dd0314c0f7b2291e5b200ac8c7c3b92560405160405180910390a45050565b600080611d1183610990565b90508073ffffffffffffffffffffffffffffffffffffffff168473ffffffffffffffffffffffffffffffffffffffff161480611d535750611d528185611756565b5b80611d9157508373ffffffffffffffffffffffffffffffffffffffff16611d7984610710565b73ffffffffffffffffffffffffffffffffffffffff16145b91505092915050565b8273ffffffffffffffffffffffffffffffffffffffff16611dba82610990565b73ffffffffffffffffffffffffffffffffffffffff1614611e10576040517f08c379a0000000000000000000000000000000000000000000000000000000008152600401611e079061448a565b60405180910390fd5b600073ffffffffffffffffffffffffffffffffffffffff168273ffffffffffffffffffffffffffffffffffffffff1603611e7f576040517f08c379a0000000000000000000000000000000000000000000000000000000008152600401611e769061451c565b60405180910390fd5b611e8c8383836001612770565b8273ffffffffffffffffffffffffffffffffffffffff16611eac82610990565b73ffffffffffffffffffffffffffffffffffffffff1614611f02576040517f08c379a0000000000000000000000000000000000000000000000000000000008152600401611ef99061448a565b60405180910390fd5b6004600082815260200190815260200160002060006101000a81549073ffffffffffffffffffffffffffffffffffffffff02191690556001600360008573ffffffffffffffffffffffffffffffffffffffff1673ffffffffffffffffffffffffffffffffffffffff168152602001908152602001600020600082825403925050819055506001600360008473ffffffffffffffffffffffffffffffffffffffff1673ffffffffffffffffffffffffffffffffffffffff16815260200190815260200160002060008282540192505081905550816002600083815260200190815260200160002060006101000a81548173ffffffffffffffffffffffffffffffffffffffff021916908373ffffffffffffffffffffffffffffffffffffffff160217905550808273ffffffffffffffffffffffffffffffffffffffff168473ffffffffffffffffffffffffffffffffffffffff167fddf252ad1be2c89b69c2b068fc378daa952ba7f163c4a11628f55a4df523b3ef60405160405180910390a461208e8383836001612896565b505050565b60006002600083815260200190815260200160002060009054906101000a900473ffffffffffffffffffffffffffffffffffffffff169050919050565b8173ffffffffffffffffffffffffffffffffffffffff168373ffffffffffffffffffffffffffffffffffffffff160361213e576040517f08c379a000000000000000000000000000000000000000000000000000000000815260040161213590614588565b60405180910390fd5b80600560008573ffffffffffffffffffffffffffffffffffffffff1673ffffffffffffffffffffffffffffffffffffffff16815260200190815260200160002060008473ffffffffffffffffffffffffffffffffffffffff1673ffffffffffffffffffffffffffffffffffffffff16815260200190815260200160002060006101000a81548160ff0219169083151502179055508173ffffffffffffffffffffffffffffffffffffffff168373ffffffffffffffffffffffffffffffffffffffff167f17307eab39ab6107e8899845ad3d59bd9653f200f220920489ca2b5937696c318360405161222f9190612f2a565b60405180910390a3505050565b612247848484611d9a565b6122538484848461289c565b612292576040517f08c379a00000000000000000000000000000000000000000000000000000000081526004016122899061461a565b60405180910390fd5b50505050565b6060600060016122a784612a23565b01905060008167ffffffffffffffff8111156122c6576122c561340a565b5b6040519080825280601f01601f1916602001820160405280156122f85781602001600182028036833780820191505090505b509050600082602001820190505b60011561235b578080600190039150507f3031323334353637383961626364656600000000000000000000000000000000600a86061a8153600a858161234f5761234e61463a565b5b04945060008503612306575b819350505050919050565b60606000825190506000810361238e57604051806020016040528060008152509150506124f8565b6000600360028361239f9190614669565b6123a9919061469d565b60046123b591906146ce565b905060006020826123c69190614669565b67ffffffffffffffff8111156123df576123de61340a565b5b6040519080825280601f01601f1916602001820160405280156124115781602001600182028036833780820191505090505b50905060006040518060600160405280604081526020016149b2604091399050600181016020830160005b868110156124b55760038101905062ffffff818a015116603f8160121c168401518060081b905060ff603f83600c1c1686015116810190508060081b905060ff603f8360061c1686015116810190508060081b905060ff603f831686015116810190508060e01b9050808452600484019350505061243c565b5060038606600181146124cf57600281146124df576124ea565b613d3d60f01b60028303526124ea565b603d60f81b60018303525b508484525050819450505050505b919050565b612599848484846040516024016125179493929190614710565b6040516020818303038152906040527ff45d7d2c000000000000000000000000000000000000000000000000000000007bffffffffffffffffffffffffffffffffffffffffffffffffffffffff19166020820180517bffffffffffffffffffffffffffffffffffffffffffffffffffffffff8381831617835250505050612706565b50505050565b61263782826040516024016125b5929190614763565b6040516020818303038152906040527fb60e72cc000000000000000000000000000000000000000000000000000000007bffffffffffffffffffffffffffffffffffffffffffffffffffffffff19166020820180517bffffffffffffffffffffffffffffffffffffffffffffffffffffffff8381831617835250505050612706565b5050565b600081600001549050919050565b612663828260405180602001604052806000815250612b76565b5050565b61270183838360405160240161267f93929190614793565b6040516020818303038152906040527fca47c4eb000000000000000000000000000000000000000000000000000000007bffffffffffffffffffffffffffffffffffffffffffffffffffffffff19166020820180517bffffffffffffffffffffffffffffffffffffffffffffffffffffffff8381831617835250505050612706565b505050565b60008151905060006a636f6e736f6c652e6c6f679050602083016000808483855afa5050505050565b60008073ffffffffffffffffffffffffffffffffffffffff1661275183612093565b73ffffffffffffffffffffffffffffffffffffffff1614159050919050565b600181111561289057600073ffffffffffffffffffffffffffffffffffffffff168473ffffffffffffffffffffffffffffffffffffffff16146128045780600360008673ffffffffffffffffffffffffffffffffffffffff1673ffffffffffffffffffffffffffffffffffffffff16815260200190815260200160002060008282546127fc91906140dd565b925050819055505b600073ffffffffffffffffffffffffffffffffffffffff168373ffffffffffffffffffffffffffffffffffffffff161461288f5780600360008573ffffffffffffffffffffffffffffffffffffffff1673ffffffffffffffffffffffffffffffffffffffff16815260200190815260200160002060008282546128879190614669565b925050819055505b5b50505050565b50505050565b60006128bd8473ffffffffffffffffffffffffffffffffffffffff16612bd1565b15612a16578373ffffffffffffffffffffffffffffffffffffffff1663150b7a026128e6611c44565b8786866040518563ffffffff1660e01b81526004016129089493929190614826565b6020604051808303816000875af192505050801561294457506040513d601f19601f820116820180604052508101906129419190614887565b60015b6129c6573d8060008114612974576040519150601f19603f3d011682016040523d82523d6000602084013e612979565b606091505b5060008151036129be576040517f08c379a00000000000000000000000000000000000000000000000000000000081526004016129b59061461a565b60405180910390fd5b805181602001fd5b63150b7a0260e01b7bffffffffffffffffffffffffffffffffffffffffffffffffffffffff1916817bffffffffffffffffffffffffffffffffffffffffffffffffffffffff191614915050612a1b565b600190505b949350505050565b600080600090507a184f03e93ff9f4daa797ed6e38ed64bf6a1f0100000000000000008310612a81577a184f03e93ff9f4daa797ed6e38ed64bf6a1f0100000000000000008381612a7757612a7661463a565b5b0492506040810190505b6d04ee2d6d415b85acef81000000008310612abe576d04ee2d6d415b85acef81000000008381612ab457612ab361463a565b5b0492506020810190505b662386f26fc100008310612aed57662386f26fc100008381612ae357612ae261463a565b5b0492506010810190505b6305f5e1008310612b16576305f5e1008381612b0c57612b0b61463a565b5b0492506008810190505b6127108310612b3b576127108381612b3157612b3061463a565b5b0492506004810190505b60648310612b5e5760648381612b5457612b5361463a565b5b0492506002810190505b600a8310612b6d576001810190505b80915050919050565b612b808383612bf4565b612b8d600084848461289c565b612bcc576040517f08c379a0000000000000000000000000000000000000000000000000000000008152600401612bc39061461a565b60405180910390fd5b505050565b6000808273ffffffffffffffffffffffffffffffffffffffff163b119050919050565b600073ffffffffffffffffffffffffffffffffffffffff168273ffffffffffffffffffffffffffffffffffffffff1603612c63576040517f08c379a0000000000000000000000000000000000000000000000000000000008152600401612c5a90614900565b60405180910390fd5b612c6c8161272f565b15612cac576040517f08c379a0000000000000000000000000000000000000000000000000000000008152600401612ca39061496c565b60405180910390fd5b612cba600083836001612770565b612cc38161272f565b15612d03576040517f08c379a0000000000000000000000000000000000000000000000000000000008152600401612cfa9061496c565b60405180910390fd5b6001600360008473ffffffffffffffffffffffffffffffffffffffff1673ffffffffffffffffffffffffffffffffffffffff16815260200190815260200160002060008282540192505081905550816002600083815260200190815260200160002060006101000a81548173ffffffffffffffffffffffffffffffffffffffff021916908373ffffffffffffffffffffffffffffffffffffffff160217905550808273ffffffffffffffffffffffffffffffffffffffff16600073ffffffffffffffffffffffffffffffffffffffff167fddf252ad1be2c89b69c2b068fc378daa952ba7f163c4a11628f55a4df523b3ef60405160405180910390a4612e0d600083836001612896565b5050565b6040518060a0016040528060608152602001606081526020016000815260200160008152602001600081525090565b6040518060c001604052806000815260200160608152602001606081526020016000815260200160008152602001600081525090565b6000604051905090565b600080fd5b600080fd5b60007fffffffff0000000000000000000000000000000000000000000000000000000082169050919050565b612ebf81612e8a565b8114612eca57600080fd5b50565b600081359050612edc81612eb6565b92915050565b600060208284031215612ef857612ef7612e80565b5b6000612f0684828501612ecd565b91505092915050565b60008115159050919050565b612f2481612f0f565b82525050565b6000602082019050612f3f6000830184612f1b565b92915050565b600081519050919050565b600082825260208201905092915050565b60005b83811015612f7f578082015181840152602081019050612f64565b60008484015250505050565b6000601f19601f8301169050919050565b6000612fa782612f45565b612fb18185612f50565b9350612fc1818560208601612f61565b612fca81612f8b565b840191505092915050565b6000819050919050565b612fe881612fd5565b82525050565b600060a083016000830151848203600086015261300b8282612f9c565b915050602083015184820360208601526130258282612f9c565b915050604083015161303a6040860182612fdf565b50606083015161304d6060860182612fdf565b5060808301516130606080860182612fdf565b508091505092915050565b600060208201905081810360008301526130858184612fee565b905092915050565b600082825260208201905092915050565b60006130a982612f45565b6130b3818561308d565b93506130c3818560208601612f61565b6130cc81612f8b565b840191505092915050565b600060208201905081810360008301526130f1818461309e565b905092915050565b61310281612fd5565b811461310d57600080fd5b50565b60008135905061311f816130f9565b92915050565b60006020828403121561313b5761313a612e80565b5b600061314984828501613110565b91505092915050565b600073ffffffffffffffffffffffffffffffffffffffff82169050919050565b600061317d82613152565b9050919050565b61318d81613172565b82525050565b60006020820190506131a86000830184613184565b92915050565b6131b781613172565b81146131c257600080fd5b50565b6000813590506131d4816131ae565b92915050565b600080604083850312156131f1576131f0612e80565b5b60006131ff858286016131c5565b925050602061321085828601613110565b9150509250929050565b60008060006060848603121561323357613232612e80565b5b6000613241868287016131c5565b9350506020613252868287016131c5565b925050604061326386828701613110565b9150509250925092565b60006020828403121561328357613282612e80565b5b6000613291848285016131c5565b91505092915050565b6132a381612fd5565b82525050565b60006020820190506132be600083018461329a565b92915050565b600060c0820190506132d9600083018961329a565b81810360208301526132eb818861309e565b905081810360408301526132ff818761309e565b905061330e606083018661329a565b61331b608083018561329a565b61332860a083018461329a565b979650505050505050565b61333c81612f0f565b811461334757600080fd5b50565b60008135905061335981613333565b92915050565b6000806040838503121561337657613375612e80565b5b6000613384858286016131c5565b92505060206133958582860161334a565b9150509250929050565b600060a08201905081810360008301526133b9818861309e565b905081810360208301526133cd818761309e565b90506133dc604083018661329a565b6133e9606083018561329a565b6133f6608083018461329a565b9695505050505050565b600080fd5b600080fd5b7f4e487b7100000000000000000000000000000000000000000000000000000000600052604160045260246000fd5b61344282612f8b565b810181811067ffffffffffffffff821117156134615761346061340a565b5b80604052505050565b6000613474612e76565b90506134808282613439565b919050565b600067ffffffffffffffff8211156134a05761349f61340a565b5b6134a982612f8b565b9050602081019050919050565b82818337600083830152505050565b60006134d86134d384613485565b61346a565b9050828152602081018484840111156134f4576134f3613405565b5b6134ff8482856134b6565b509392505050565b600082601f83011261351c5761351b613400565b5b813561352c8482602086016134c5565b91505092915050565b6000806000806080858703121561354f5761354e612e80565b5b600061355d878288016131c5565b945050602061356e878288016131c5565b935050604061357f87828801613110565b925050606085013567ffffffffffffffff8111156135a05761359f612e85565b5b6135ac87828801613507565b91505092959194509250565b600081519050919050565b600082825260208201905092915050565b6000819050602082019050919050565b600060c0830160008301516135fc6000860182612fdf565b50602083015184820360208601526136148282612f9c565b9150506040830151848203604086015261362e8282612f9c565b91505060608301516136436060860182612fdf565b5060808301516136566080860182612fdf565b5060a083015161366960a0860182612fdf565b508091505092915050565b600061368083836135e4565b905092915050565b6000602082019050919050565b60006136a0826135b8565b6136aa81856135c3565b9350836020820285016136bc856135d4565b8060005b858110156136f857848403895281516136d98582613674565b94506136e483613688565b925060208a019950506001810190506136c0565b50829750879550505050505092915050565b600060208201905081810360008301526137248184613695565b905092915050565b600060c0830160008301516137446000860182612fdf565b506020830151848203602086015261375c8282612f9c565b915050604083015184820360408601526137768282612f9c565b915050606083015161378b6060860182612fdf565b50608083015161379e6080860182612fdf565b5060a08301516137b160a0860182612fdf565b508091505092915050565b600060208201905081810360008301526137d6818461372c565b905092915050565b600080604083850312156137f5576137f4612e80565b5b6000613803858286016131c5565b9250506020613814858286016131c5565b9150509250929050565b7f4e487b7100000000000000000000000000000000000000000000000000000000600052602260045260246000fd5b6000600282049050600182168061386557607f821691505b6020821081036138785761387761381e565b5b50919050565b7f4552433732313a20617070726f76616c20746f2063757272656e74206f776e6560008201527f7200000000000000000000000000000000000000000000000000000000000000602082015250565b60006138da60218361308d565b91506138e58261387e565b604082019050919050565b60006020820190508181036000830152613909816138cd565b9050919050565b7f4552433732313a20617070726f76652063616c6c6572206973206e6f7420746f60008201527f6b656e206f776e6572206f7220617070726f76656420666f7220616c6c000000602082015250565b600061396c603d8361308d565b915061397782613910565b604082019050919050565b6000602082019050818103600083015261399b8161395f565b9050919050565b7f4552433732313a2063616c6c6572206973206e6f7420746f6b656e206f776e6560008201527f72206f7220617070726f76656400000000000000000000000000000000000000602082015250565b60006139fe602d8361308d565b9150613a09826139a2565b604082019050919050565b60006020820190508181036000830152613a2d816139f1565b9050919050565b6000606082019050613a496000830186613184565b613a56602083018561329a565b613a63604083018461329a565b949350505050565b7f4552433732313a20696e76616c696420746f6b656e2049440000000000000000600082015250565b6000613aa160188361308d565b9150613aac82613a6b565b602082019050919050565b60006020820190508181036000830152613ad081613a94565b9050919050565b7f4552433732313a2061646472657373207a65726f206973206e6f74206120766160008201527f6c6964206f776e65720000000000000000000000000000000000000000000000602082015250565b6000613b3360298361308d565b9150613b3e82613ad7565b604082019050919050565b60006020820190508181036000830152613b6281613b26565b9050919050565b600081905092915050565b7f7b226e616d65223a202200000000000000000000000000000000000000000000600082015250565b6000613baa600a83613b69565b9150613bb582613b74565b600a82019050919050565b6000613bcb82612f45565b613bd58185613b69565b9350613be5818560208601612f61565b80840191505092915050565b7f202d2d204e465420233a20000000000000000000000000000000000000000000600082015250565b6000613c27600b83613b69565b9150613c3282613bf1565b600b82019050919050565b7f222c20226465736372697074696f6e223a20225468697320697320616e204e4660008201527f542074686174206c6574732070656f706c6520706c617920696e20746865206760208201527f616d65204d657461766572736520536c6179657221222c2022696d616765223a60408201527f2022000000000000000000000000000000000000000000000000000000000000606082015250565b6000613ce5606283613b69565b9150613cf082613c3d565b606282019050919050565b7f222c202261747472696275746573223a205b207b202274726169745f7479706560008201527f223a20224865616c746820506f696e7473222c202276616c7565223a20000000602082015250565b6000613d57603d83613b69565b9150613d6282613cfb565b603d82019050919050565b7f2c20226d61785f76616c7565223a000000000000000000000000000000000000600082015250565b6000613da3600e83613b69565b9150613dae82613d6d565b600e82019050919050565b7f7d2c207b202274726169745f74797065223a202241747461636b2044616d616760008201527f65222c202276616c7565223a2000000000000000000000000000000000000000602082015250565b6000613e15602d83613b69565b9150613e2082613db9565b602d82019050919050565b7f7d205d7d00000000000000000000000000000000000000000000000000000000600082015250565b6000613e61600483613b69565b9150613e6c82613e2b565b600482019050919050565b6000613e8282613b9d565b9150613e8e8289613bc0565b9150613e9982613c1a565b9150613ea58288613bc0565b9150613eb082613cd8565b9150613ebc8287613bc0565b9150613ec782613d4a565b9150613ed38286613bc0565b9150613ede82613d96565b9150613eea8285613bc0565b9150613ef582613e08565b9150613f018284613bc0565b9150613f0c82613e54565b9150819050979650505050505050565b7f646174613a6170706c69636174696f6e2f6a736f6e3b6261736536342c000000600082015250565b6000613f52601d83613b69565b9150613f5d82613f1c565b601d82019050919050565b6000613f7382613f45565b9150613f7f8284613bc0565b915081905092915050565b7f4572726f723a20636861726163746572206d757374206861766520485020746f60008201527f2061747461636b20626f73732e00000000000000000000000000000000000000602082015250565b6000613fe6602d8361308d565b9150613ff182613f8a565b604082019050919050565b6000602082019050818103600083015261401581613fd9565b9050919050565b7f4572726f723a20626f7373206d757374206861766520485020746f206174746160008201527f636b206368617261637465722e00000000000000000000000000000000000000602082015250565b6000614078602d8361308d565b91506140838261401c565b604082019050919050565b600060208201905081810360008301526140a78161406b565b9050919050565b7f4e487b7100000000000000000000000000000000000000000000000000000000600052601160045260246000fd5b60006140e882612fd5565b91506140f383612fd5565b925082820390508181111561410b5761410a6140ae565b5b92915050565b7f4e487b7100000000000000000000000000000000000000000000000000000000600052603260045260246000fd5b60008190508160005260206000209050919050565b60006020601f8301049050919050565b600082821b905092915050565b6000600883026141a27fffffffffffffffffffffffffffffffffffffffffffffffffffffffffffffffff82614165565b6141ac8683614165565b95508019841693508086168417925050509392505050565b6000819050919050565b60006141e96141e46141df84612fd5565b6141c4565b612fd5565b9050919050565b6000819050919050565b614203836141ce565b61421761420f826141f0565b848454614172565b825550505050565b600090565b61422c61421f565b6142378184846141fa565b505050565b5b8181101561425b57614250600082614224565b60018101905061423d565b5050565b601f8211156142a05761427181614140565b61427a84614155565b81016020851015614289578190505b61429d61429585614155565b83018261423c565b50505b505050565b600082821c905092915050565b60006142c3600019846008026142a5565b1980831691505092915050565b60006142dc83836142b2565b9150826002028217905092915050565b6142f582612f45565b67ffffffffffffffff81111561430e5761430d61340a565b5b614318825461384d565b61432382828561425f565b600060209050601f8311600181146143565760008415614344578287015190505b61434e85826142d0565b8655506143b6565b601f19841661436486614140565b60005b8281101561438c57848901518255600182019150602085019450602081019050614367565b868310156143a957848901516143a5601f8916826142b2565b8355505b6001600288020188555050505b505050505050565b600060808201905081810360008301526143d8818761309e565b905081810360208301526143ec818661309e565b90506143fb604083018561329a565b818103606083015261440d818461309e565b905095945050505050565b7f4552433732313a207472616e736665722066726f6d20696e636f72726563742060008201527f6f776e6572000000000000000000000000000000000000000000000000000000602082015250565b600061447460258361308d565b915061447f82614418565b604082019050919050565b600060208201905081810360008301526144a381614467565b9050919050565b7f4552433732313a207472616e7366657220746f20746865207a65726f2061646460008201527f7265737300000000000000000000000000000000000000000000000000000000602082015250565b600061450660248361308d565b9150614511826144aa565b604082019050919050565b60006020820190508181036000830152614535816144f9565b9050919050565b7f4552433732313a20617070726f766520746f2063616c6c657200000000000000600082015250565b600061457260198361308d565b915061457d8261453c565b602082019050919050565b600060208201905081810360008301526145a181614565565b9050919050565b7f4552433732313a207472616e7366657220746f206e6f6e20455243373231526560008201527f63656976657220696d706c656d656e7465720000000000000000000000000000602082015250565b600061460460328361308d565b915061460f826145a8565b604082019050919050565b60006020820190508181036000830152614633816145f7565b9050919050565b7f4e487b7100000000000000000000000000000000000000000000000000000000600052601260045260246000fd5b600061467482612fd5565b915061467f83612fd5565b9250828201905080821115614697576146966140ae565b5b92915050565b60006146a882612fd5565b91506146b383612fd5565b9250826146c3576146c261463a565b5b828204905092915050565b60006146d982612fd5565b91506146e483612fd5565b92508282026146f281612fd5565b91508282048414831517614709576147086140ae565b5b5092915050565b6000608082019050818103600083015261472a818761309e565b9050818103602083015261473e818661309e565b905061474d604083018561329a565b61475a606083018461329a565b95945050505050565b6000604082019050818103600083015261477d818561309e565b905061478c602083018461329a565b9392505050565b600060608201905081810360008301526147ad818661309e565b90506147bc602083018561329a565b6147c9604083018461329a565b949350505050565b600081519050919050565b600082825260208201905092915050565b60006147f8826147d1565b61480281856147dc565b9350614812818560208601612f61565b61481b81612f8b565b840191505092915050565b600060808201905061483b6000830187613184565b6148486020830186613184565b614855604083018561329a565b818103606083015261486781846147ed565b905095945050505050565b60008151905061488181612eb6565b92915050565b60006020828403121561489d5761489c612e80565b5b60006148ab84828501614872565b91505092915050565b7f4552433732313a206d696e7420746f20746865207a65726f2061646472657373600082015250565b60006148ea60208361308d565b91506148f5826148b4565b602082019050919050565b60006020820190508181036000830152614919816148dd565b9050919050565b7f4552433732313a20746f6b656e20616c7265616479206d696e74656400000000600082015250565b6000614956601c8361308d565b915061496182614920565b602082019050919050565b6000602082019050818103600083015261498581614949565b905091905056fe506c617965722061747461636b656420626f73732e204e657720626f73732068703a2025734142434445464748494a4b4c4d4e4f505152535455565758595a6162636465666768696a6b6c6d6e6f707172737475767778797a303132333435363738392b2f426f73732061747461636b656420706c617965722e204e657720706c617965722068703a2025730a4d696e746564204e465420772f20746f6b656e496420257320616e6420636861726163746572496e6465782025730a506c6179657220772f206368617261637465722025732061626f757420746f2061747461636b2e2048617320257320485020616e64202573204144a26469706673582212203d645a89c49b16f45f22b9bcb3ec47ce09741fea1340b3ddf83e21ad61c24afd64736f6c63430008110033446f6e6520696e697469616c697a696e6720257320772f2048502025732c20696d67202573",
  "linkReferences": {},
  "deployedLinkReferences": {}
}